:100000000C9435000C945D000C945D000C945D0024
:100010000C945D000C945D000C945D000C945D00EC
:100020000C945D000C945D000C945D000C945D00DC
:100030000C945D000C945D000C945D000C945D00CC
:100040000C94E2010C945D000C9452020C942C026E
:100050000C945D000C945D000C945D000C945D00AC
:100060000C945D000C945D00610411241FBECFEF61
:10007000D8E0DEBFCDBF11E0A0E0B1E0E0E7F9E0FD
:1000800002C005900D92A433B107D9F721E0A4E393
:10009000B1E001C01D92A53EB207E1F710E0C5E353
:1000A000D0E004C02197FE010E94B004C433D10700
:1000B000C9F70E9484020C94B6040C9400003FB768
:1000C000F8948091440190914501A0914601B0912E
:1000D000470126B5A89B05C02F3F19F00196A11D29
:1000E000B11D3FBFBA2FA92F982F8827BC01CD0182
:1000F000620F711D811D911D42E0660F771F881FE1
:10010000991F4A95D1F70895AF92BF92CF92DF928F
:10011000EF92FF920F931F93CF93DF936C017B01BC
:100120008B01040F151FEB015E01AE18BF08C0174D
:10013000D10759F06991D601ED91FC910190F081C0
:10014000E02DC6010995892B79F7C501DF91CF9183
:100150001F910F91FF90EF90DF90CF90BF90AF90E5
:100160000895FC01538D448D252F30E0842F90E0BD
:10017000821B930B541710F0CF96089501970895A2
:10018000FC01918D828D981761F0A28DAE0FBF2F6B
:10019000B11D5D968C91928D9F5F9F73928F90E0C1
:1001A00008958FEF9FEF0895FC01918D828D981730
:1001B00031F0828DE80FF11D858D90E008958FEF6D
:1001C0009FEF0895FC01918D228D892F90E0805C36
:1001D0009F4F821B91098F739927089588E491E0BE
:1001E0000E94E20021E0892B09F420E0822F08958B
:1001F00080E090E0892B29F00E94EE0081110C94A0
:1002000000000895FC01A48DA80FB92FB11DA35AB9
:10021000BF4F2C91848D90E001968F739927848F26
:10022000A689B7892C93A089B1898C918370806449
:100230008C93938D848D981306C00288F389E02DEA
:1002400080818F7D80830895EF92FF920F931F939B
:10025000CF93DF93EC0181E0888F9B8D8C8D981379
:100260001AC0E889F989808185FF15C09FB7F89485
:10027000EE89FF896083E889F989808183708064D1
:1002800080839FBF81E090E0DF91CF911F910F911C
:10029000FF90EF900895F62E0B8D10E00F5F1F4F2B
:1002A0000F731127E02E8C8D8E110CC00FB607FC3A
:1002B000FACFE889F989808185FFF5CFCE010E94C8
:1002C0000201F1CFEB8DEC0FFD2FF11DE35AFF4F33
:1002D000F0829FB7F8940B8FEA89FB898081806256
:1002E000CFCFCF93DF93EC01888D8823B9F0AA8913
:1002F000BB89E889F9898C9185FD03C0808186FDE1
:100300000DC00FB607FCF7CF8C9185FFF2CF80812F
:1003100085FFEDCFCE010E940201E9CFDF91CF91A1
:100320000895FC0101900020E9F73197AF01481BC7
:10033000590BBC0188E491E00C9484008F929F9249
:10034000AF92BF920F931F93CF93DF93CDB7DEB7DA
:10035000A1970FB6F894DEBF0FBECDBF19A24230F1
:1003600008F44AE08E010F5D1F4F842E912CB12CB2
:10037000A12CA50194010E948E04E62FB901CA01A7
:10038000EA30F4F4E05DD801EE938D01232B242BA9
:10039000252B79F790E080E0109719F0CD010E94AD
:1003A0009101A1960FB6F894DEBF0FBECDBFDF91CD
:1003B000CF911F910F91BF90AF909F908F90089514
:1003C000E95CE1CF1F920F920FB60F9211242F9389
:1003D0003F938F939F93AF93BF93809140019091F0
:1003E0004101A0914201B091430130913F0123E0CE
:1003F000230F2D3758F50196A11DB11D20933F0104
:100400008093400190934101A0934201B093430136
:100410008091440190914501A0914601B09147011E
:100420000196A11DB11D8093440190934501A093B5
:100430004601B0934701BF91AF919F918F913F913A
:100440002F910F900FBE0F901F90189526E8230F45
:100450000296A11DB11DD2CF1F920F920FB60F921F
:1004600011242F933F934F935F936F937F938F93B9
:100470009F93AF93BF93EF93FF9388E491E00E9423
:100480000201FF91EF91BF91AF919F918F917F9169
:100490006F915F914F913F912F910F900FBE0F90F1
:1004A0001F9018951F920F920FB60F9211242F9341
:1004B0008F939F93EF93FF93E0915801F09159012F
:1004C0008081E0915E01F0915F0182FD1BC090810F
:1004D000809161018F5F8F7320916201821741F0DB
:1004E000E0916101F0E0E85BFE4F958F8093610140
:1004F000FF91EF919F918F912F910F900FBE0F90D1
:100500001F9018958081F4CF789484B5826084BD63
:1005100084B5816084BD85B5826085BD85B5816007
:1005200085BD80916E00816080936E001092810085
:100530008091810082608093810080918100816040
:100540008093810080918000816080938000809101
:10055000B10084608093B1008091B000816080938D
:10056000B00080917A00846080937A0080917A0054
:10057000826080937A0080917A00816080937A0013
:1005800080917A00806880937A001092C10087B1D0
:10059000836087B9209A87B1837F87B988B18C60DF
:1005A00088B9E0915801F091590182E08083E0918F
:1005B0005401F09155011082E0915601F0915701DC
:1005C0008FEC808310926001E0915C01F0915D01FD
:1005D00086E08083E0915A01F0915B018081806127
:1005E0008083E0915A01F0915B0180818860808373
:1005F000E0915A01F0915B01808180688083E091F5
:100600005A01F0915B0180818F7D808311E002E0CF
:1006100093E0B92EC0E0D0E0AA24A3942FB7F894B9
:100620008091400190914101A0914201B09143011C
:100630002FBF36B126B1287032FDEEC040913B018C
:1006400050913C0160913D0170913E01211128C003
:10065000452B462B472B41F480933B0190933C0163
:10066000A0933D01B0933E0140913B0150913C016C
:1006700060913D0170913E016C017D01C41AD50A63
:10068000E60AF70AB701A601483E53406105710525
:1006900078F1A0923A01109239011092380128C0E5
:1006A000452B462B472B41F480933B0190933C0113
:1006B000A0933D01B0933E0140913B0150913C011C
:1006C00060913D0170913E016C017D01C41AD50A13
:1006D000E60AF70AB701A601483E534061057105D5
:1006E00038F020913A01222309F48CC010923A018B
:1006F000409134015091350160913601709137017C
:100700006C017D01C41AD50AE60AF70AB701A601F1
:100710004C3251406105710580F080933401909313
:100720003501A0933601B093370180913A018823B7
:1007300009F4B3C088B18B2588B980913801811143
:1007400009C080913901811105C080913A01882347
:1007500009F4B5C0289A82E191E00E94910160916C
:10076000380170E090E080E04AE00E949E0189E15B
:1007700091E00E9491016091390170E090E080E089
:100780004AE00E949E0184E291E00E949101609102
:100790003A0170E090E080E04AE00E949E0180E330
:1007A00091E00E9491010E945F002B013C0182E3D5
:1007B000C82ED12CE12CF12C0E945F006419750920
:1007C00086099709683E734081059105A8F381E089
:1007D000C81AD108E108F10828EE420E23E0521EA3
:1007E000611C711CC114D104E104F10429F72097A4
:1007F00009F414CF0E94EE00882309F40FCF0E9461
:1008000000000CCF21E030913801311120E020931D
:100810003801109239016CCF211136C040913B0153
:1008200050913C0160913D0170913E01452B462B5A
:10083000472B41F480933B0190933C01A0933D01F1
:10084000B0933E0140913B0150913C0160913D01CC
:1008500070913E016C017D01C41AD50AE60AF70ABF
:10086000B701A601483E53406105710508F440CF29
:1008700020913A0121113ACF21E030913901311113
:1008800020E02093390109CF10923B0110923C01E6
:1008900010923D0110923E012BCF809138018823A8
:1008A00051F088B1812788B980913901882329F0D6
:1008B00088B1802741CF4098F7CF41983ECF289804
:1008C0004ACFE8E4F1E01382128288EE93E0A0E0E0
:1008D000B0E084839583A683B78384E091E091831D
:1008E000808385EC90E09587848784EC90E09787FF
:1008F000868780EC90E0918B808B81EC90E0938BED
:10090000828B82EC90E0958B848B86EC90E0978BC9
:10091000868B118E128E138E148E0895A1E21A2EDC
:10092000AA1BBB1BFD010DC0AA1FBB1FEE1FFF1F93
:10093000A217B307E407F50720F0A21BB30BE40BE3
:10094000F50B661F771F881F991F1A9469F760952A
:100950007095809590959B01AC01BD01CF010895E4
:10096000EE0FFF1F0590F491E02D0994F894FFCF4E
:100970000000000024018400B1007101E200C00009
:10098000D4004C6566743A2000207C205269676868
:10099000743A2000207C2048617A6172643A200019
:0409A0000D0A00003C
:00000001FF
